:02000000292CA9
:10000800FF00030E8301B1000A08B2008A017008DC
:10001800A6007408A5007808A4007A08A3007B0845
:10002800A2007C08A1007D08A0000408A7008B1C82
:1000380026288B102808033A031D2428A801252800
:10004800A80A2A212608F0002508F4002408F80048
:100058002308FA002208FB002108FC002008FD0004
:100068002708840032088A00310E8300FF0E7F0EB5
:0200780009007D
:10007A00710DF80DF90D7408F8027508031C750F57
:10008A00F902F00DF10D0F30FC00710DF80DF90DAC
:10009A007408701C5628F8027508031C750FF902BB
:1000AA005B28F80775080318750FF907F00DF10DAD
:1000BA00FC0B4A28701867287408F8077508031893
:0800CA00750FF90700000800A2
:1000D200831203137408003A031D78287508003A46
:1000E200031D7828FF30F0007F30F100D128831201
:1000F2000313FD01F901F8017108700403190034BA
:1001020071087506FA00FA1BFD09FB01F51F8E281E
:10011200F409F509F40A0319F50AF11F9528F00903
:10012200F109F00A0319F10A71087504FA00FA1BC1
:10013200AA283D207B18BD28FD1F0034F009F109D3
:10014200F00A0319F10AF809F909F80A0319F90A78
:100152000034F51FB928F11BB5287108F9007008A1
:10016200F800F101F0019D28F101F001F00A0034DC
:10017200F109F009FB0A9A28F80A0319F90A740826
:100182007802031D9D2875087902031D9D28F90137
:10019200F801F00A0319F10AF11F9D280000FF344B
:0201A200080053
:0E01A4008312031330088A002F08820008001F
:1001B20083120313FD01F801700803190034740659
:1001C200FA00FA1BFD09FB01F41FE928F409F40AFD
:1001D200F01FED28F009F00A70087404FA00FA1B07
:1001E20011297408F802F00D700DF80D7408F80763
:1001F200F00D0630FC00700DF80D74087018F8024E
:10020200701CF807F00DFC0BFC28701CF8077B181B
:100212001F29FD1F0034F009F00AF809F80A00341A
:10022200F41F1C29F01B19297008F800F0010A2993
:10023200F001F00A0034F009FB0AF228F80A740807
:100242007802031D0A29F801F00AF01F0A29FF3477
:020252000800A2
:1002540083120313861C312A2808293E84000008CF
:1002640088008617861B3829061339290617061BAA
:100274003D2986123E298616861A422906124329EA
:100284000616212A312A0330AD0080302D06F000F5
:100294008030013A7002031CB029AE018030193A53
:1002A400F00080302E067002031CAE29061286165A
:1002B400061786170A30F4002D08F000D9207008BC
:1002C40087001A30FC00F830FD00FD0B6729FC0B99
:1002D4006729000006168612061786170A30F400EE
:1002E4002D08F000D9207808F000700887001A3033
:1002F400FC00F830FD00FD0B7D29FC0B7D2900007E
:1003040006168616061386170A30F4002D08F00028
:10031400D920700887001A30FC00F830FD00FD0B6E
:100324009129FC0B912900000616861606178613E0
:100334000A30F4002D08F000D9207808F000700885
:1003440087001A30FC00F830FD00FD0BA729FC0BD8
:10035400A7290000AE0A5029AD0347290230A8009E
:10036400312A312A0330AD0080302D06F000803070
:10037400013A7002031C1F2AAE018030193AF000C2
:1003840080302E067002031C1D2A061286160617DC
:1003940086170A30F4002D08F000D9207008870071
:1003A4001A30FC00F830FD00FD0BD629FC0BD629D1
:1003B400000006168612061786170A30F4002D0868
:1003C400F000D9207808F000700887001A30FC008B
:1003D400F830FD00FD0BEC29FC0BEC29000006169F
:1003E4008616061386170A30F4002D08F000D9206B
:1003F400700887001A30FC00F830FD00FD0B002A5D
:10040400FC0B002A000006168616061786130A300F
:10041400F4002D08F000D9207808F0007008870057
:100424001A30FC00F830FD00FD0B162AFC0B162ACE
:100434000000AE0ABF29AD03B629A801312A280855
:10044400003A031944292808013A031945292808C0
:10045400023A0319B3292808033A0319B4290800F6
:1004640083120313290888000F30AD0080302D0655
:10047400F0008030043A7002031CB92AAE018030C7
:100484002E06F0008030193A70020318B72A861835
:10049400B72A06128616061786170A30F4002D08A6
:1004A400F000D920700887001A30FC00F830FD00F5
:1004B400FD0B5A2AFC0B5A2A000006168612061750
:1004C40086170A30F4002D08F000D9207808F000CF
:1004D400700887001A30FC00F830FD00FD0B702A0C
:1004E400FC0B702A000006168616061386170330C6
:1004F4002D02F000F101031CF1030030AD1BFF30AD
:10050400F1070A30F4000030F50069207008870014
:100514001A30FC00F830FD00FD0B8E2AFC0B8E2AED
:100524000000061686160617861303302D02F00007
:10053400F101031CF1030030AD1BFF30F1070A3059
:10054400F4000030F50069207808F0007908F10023
:10055400700887001A30FC00F830FD00FD0BB02A4B
:10056400FC0BB02A0000AE0A412AAD03382A2A083F
:1005740088000330AD0080302D06F0008030013A51
:100584007002031C282BAE0180302E06F000803050
:10059400193A70020318262B8618262B0612861683
:1005A400061786170A30F4002D08F000D9207008C9
:1005B40087001A30FC00F830FD00FD0BDF2AFC0B2D
:1005C400DF2A000006168612061786170A30F40082
:1005D4002D08F000D9207808F000700887001A3040
:1005E400FC00F830FD00FD0BF52AFC0BF52A000099
:1005F40006168616061386170A30F4002D08F00036
:10060400D920700887001A30FC00F830FD00FD0B7B
:10061400092BFC0B092B00000616861606178613F9
:100624000A30F4002D08F000D9207808F000700892
:1006340087001A30FC00F830FD00FD0B1F2BFC0B6B
:100644001F2B0000AE0AC62AAD03BD2A2B08880062
:100654001730AD0080302D06F0008030043A70026F
:10066400031CAD2BAE018030193AF00080302E0609
:100674007002031CAB2B8618AB2B061286160617CA
:10068400861703302D02F000F101031CF103003042
:10069400AD1BFF30F1070A30F4000030F50069208B
:1006A400700887001A30FC00F830FD00FD0B582B51
:1006B400FC0B582B0000061686120617861703300B
:1006C4002D02F000F101031CF1030030AD1BFF30DB
:1006D400F1070A30F4000030F50069207808F000D2
:1006E4007908F100700887001A30FC00F830FD002A
:1006F400FD0B7A2BFC0B7A2B0000061686160613CC
:1007040086170A30F4002D08F000D92070088700FD
:100714001A30FC00F830FD00FD0B8E2BFC0B8E2BE9
:10072400000006168616061786130A30F4002D08F4
:10073400F000D9207808F000700887001A30FC0017
:10074400F830FD00FD0BA42BFC0BA42B0000AE0A1B
:10075400352BAD032C2B2C0888000330AD008030E2
:100764002D06F0008030013A7002031C1C2CAE01EF
:100774008030193AF00080302E067002031C1A2CC7
:1007840086181A2C06128616061786170A30F400E5
:100794002D08F000D920700887001A30FC00F830CA
:1007A400FD00FD0BD32BFC0BD32B00000616861289
:1007B400061786170A30F4002D08F000D9207808AF
:1007C400F000700887001A30FC00F830FD00FD0BC3
:1007D400E92BFC0BE92B0000061686160613861778
:1007E4000A30F4002D08F000D920700887001A3070
:1007F400FC00F830FD00FD0BFD2BFC0BFD2B000075
:1008040006168616061786130A30F4002D08F00023
:10081400D9207808F000700887001A30FC00F830FE
:10082400FD00FD0B132CFC0B132C0000AE0ABA2B9D
:06083400AD03B12B08002A
:10083A00D2208A110A128000840AAF0A0319B00A68
:08084A00F003031D1D2C080042
:1008520083120313A8012130A9001130AA000C3021
:10086200AB000A30AC000330831686008701831286
:100872008701831688018312880106168616861759
:100882000617831601178B170B168312861C4B2C27
:0A0892002A214C2C3222462C4D2C5A
:02400E004A2F37
:00000001FF
